{
  "_format": "hh-sol-artifact-1",
  "contractName": "Crowdfunding",
  "sourceName": "contracts/Crowdfunding.sol",
  "abi": [
    {
      "inputs": [
        {
          "internalType": "uint256",
          "name": "_goal",
          "type": "uint256"
        },
        {
          "internalType": "uint256",
          "name": "_durationInDays",
          "type": "uint256"
        }
      ],
      "stateMutability": "nonpayable",
      "type": "constructor"
    },
    {
      "anonymous": false,
      "inputs": [
        {
          "indexed": false,
          "internalType": "address",
          "name": "contributor",
          "type": "address"
        },
        {
          "indexed": false,
          "internalType": "uint256",
          "name": "amount",
          "type": "uint256"
        }
      ],
      "name": "ContributionReceived",
      "type": "event"
    },
    {
      "anonymous": false,
      "inputs": [
        {
          "indexed": false,
          "internalType": "uint256",
          "name": "totalFunds",
          "type": "uint256"
        }
      ],
      "name": "GoalReached",
      "type": "event"
    },
    {
      "anonymous": false,
      "inputs": [
        {
          "indexed": false,
          "internalType": "address",
          "name": "contributor",
          "type": "address"
        },
        {
          "indexed": false,
          "internalType": "uint256",
          "name": "amount",
          "type": "uint256"
        }
      ],
      "name": "RefundIssued",
      "type": "event"
    },
    {
      "inputs": [],
      "name": "contribute",
      "outputs": [],
      "stateMutability": "payable",
      "type": "function"
    },
    {
      "inputs": [
        {
          "internalType": "address",
          "name": "",
          "type": "address"
        }
      ],
      "name": "contributions",
      "outputs": [
        {
          "internalType": "uint256",
          "name": "",
          "type": "uint256"
        }
      ],
      "stateMutability": "view",
      "type": "function"
    },
    {
      "inputs": [],
      "name": "creator",
      "outputs": [
        {
          "internalType": "address",
          "name": "",
          "type": "address"
        }
      ],
      "stateMutability": "view",
      "type": "function"
    },
    {
      "inputs": [],
      "name": "deadline",
      "outputs": [
        {
          "internalType": "uint256",
          "name": "",
          "type": "uint256"
        }
      ],
      "stateMutability": "view",
      "type": "function"
    },
    {
      "inputs": [],
      "name": "goal",
      "outputs": [
        {
          "internalType": "uint256",
          "name": "",
          "type": "uint256"
        }
      ],
      "stateMutability": "view",
      "type": "function"
    },
    {
      "inputs": [],
      "name": "isFunded",
      "outputs": [
        {
          "internalType": "bool",
          "name": "",
          "type": "bool"
        }
      ],
      "stateMutability": "view",
      "type": "function"
    },
    {
      "inputs": [],
      "name": "refund",
      "outputs": [],
      "stateMutability": "nonpayable",
      "type": "function"
    },
    {
      "inputs": [],
      "name": "totalFunds",
      "outputs": [
        {
          "internalType": "uint256",
          "name": "",
          "type": "uint256"
        }
      ],
      "stateMutability": "view",
      "type": "function"
    },
    {
      "inputs": [],
      "name": "withdrawFunds",
      "outputs": [],
      "stateMutability": "nonpayable",
      "type": "function"
    }
  ],
  "bytecode": "0x60806040523480156200001157600080fd5b506040516200114b3803806200114b8339818101604052810190620000379190620000ea565b336000806101000a81548173ffffffffffffffffffffffffffffffffffffffff021916908373ffffffffffffffffffffffffffffffffffffffff1602179055508160018190555062015180816200008f919062000160565b426200009c9190620001ab565b6002819055505050620001e6565b600080fd5b6000819050919050565b620000c481620000af565b8114620000d057600080fd5b50565b600081519050620000e481620000b9565b92915050565b60008060408385031215620001045762000103620000aa565b5b60006200011485828601620000d3565b92505060206200012785828601620000d3565b9150509250929050565b7f4e487b7100000000000000000000000000000000000000000000000000000000600052601160045260246000fd5b60006200016d82620000af565b91506200017a83620000af565b92508282026200018a81620000af565b91508282048414831517620001a457620001a362000131565b5b5092915050565b6000620001b882620000af565b9150620001c583620000af565b9250828201905080821115620001e057620001df62000131565b5b92915050565b610f5580620001f66000396000f3fe6080604052600436106100865760003560e01c806342e94c901161005957806342e94c9014610123578063590e1ae3146101605780637c65430314610177578063968ed600146101a2578063d7bb99ba146101cd57610086565b806302d05d3f1461008b57806324600fc3146100b657806329dcb0cf146100cd57806340193883146100f8575b600080fd5b34801561009757600080fd5b506100a06101d7565b6040516100ad9190610889565b60405180910390f35b3480156100c257600080fd5b506100cb6101fb565b005b3480156100d957600080fd5b506100e261044a565b6040516100ef91906108bd565b60405180910390f35b34801561010457600080fd5b5061010d610450565b60405161011a91906108bd565b60405180910390f35b34801561012f57600080fd5b5061014a60048036038101906101459190610909565b610456565b60405161015791906108bd565b60405180910390f35b34801561016c57600080fd5b5061017561046e565b005b34801561018357600080fd5b5061018c6106ae565b6040516101999190610951565b60405180910390f35b3480156101ae57600080fd5b506101b76106c1565b6040516101c491906108bd565b60405180910390f35b6101d56106c7565b005b60008054906101000a900473ffffffffffffffffffffffffffffffffffffffff1681565b60008054906101000a900473ffffffffffffffffffffffffffffffffffffffff1673ffffffffffffffffffffffffffffffffffffffff163373ffffffffffffffffffffffffffffffffffffffff1614610289576040517f08c379a0000000000000000000000000000000000000000000000000000000008152600401610280906109c9565b60405180910390fd5b60015460035410156102d0576040517f08c379a00000000000000000000000000000000000000000000000000000000081526004016102c790610a5b565b60405180910390fd5b600460009054906101000a900460ff1615610320576040517f08c379a000000000000000000000000000000000000000000000000000000000815260040161031790610ac7565b60405180910390fd5b6001600460006101000a81548160ff0219169083151502179055506000600354905060008060009054906101000a900473ffffffffffffffffffffffffffffffffffffffff1673ffffffffffffffffffffffffffffffffffffffff168260405161038990610b18565b60006040518083038185875af1925050503d80600081146103c6576040519150601f19603f3d011682016040523d82523d6000602084013e6103cb565b606091505b505090508061040f576040517f08c379a000000000000000000000000000000000000000000000000000000000815260040161040690610b79565b60405180910390fd5b7ffbfd8ab7c24300fa9888cd721c8565a7da56759384781283684dcf7c7c4a846b8260405161043e91906108bd565b60405180910390a15050565b60025481565b60015481565b60056020528060005260406000206000915090505481565b6002544210156104b3576040517f08c379a00000000000000000000000000000000000000000000000000000000081526004016104aa90610c0b565b60405180910390fd5b600154600354106104f9576040517f08c379a00000000000000000000000000000000000000000000000000000000081526004016104f090610c9d565b60405180910390fd5b6000600560003373ffffffffffffffffffffffffffffffffffffffff1673ffffffffffffffffffffffffffffffffffffffff16815260200190815260200160002054905060008111610580576040517f08c379a000000000000000000000000000000000000000000000000000000000815260040161057790610d09565b60405180910390fd5b6000600560003373ffffffffffffffffffffffffffffffffffffffff1673ffffffffffffffffffffffffffffffffffffffff1681526020019081526020016000208190555060003373ffffffffffffffffffffffffffffffffffffffff16826040516105eb90610b18565b60006040518083038185875af1925050503d8060008114610628576040519150601f19603f3d011682016040523d82523d6000602084013e61062d565b606091505b5050905080610671576040517f08c379a000000000000000000000000000000000000000000000000000000000815260040161066890610d75565b60405180910390fd5b7fa171b6942063c6f2800ce40a780edce37baa2b618571b11eedd1e69e626e7d7633836040516106a2929190610d95565b60405180910390a15050565b600460009054906101000a900460ff1681565b60035481565b600254421061070b576040517f08c379a000000000000000000000000000000000000000000000000000000000815260040161070290610e0a565b60405180910390fd5b600460009054906101000a900460ff161561075b576040517f08c379a000000000000000000000000000000000000000000000000000000000815260040161075290610ac7565b60405180910390fd5b6000341161079e576040517f08c379a000000000000000000000000000000000000000000000000000000000815260040161079590610e9c565b60405180910390fd5b34600560003373ffffffffffffffffffffffffffffffffffffffff1673ffffffffffffffffffffffffffffffffffffffff16815260200190815260200160002060008282546107ed9190610eeb565b9250508190555034600360008282546108069190610eeb565b925050819055507f1bb460ccaaf70fbacfec17a376f8acbd278c1405590ffcc8ebe4b88daf4f64ad333460405161083e929190610d95565b60405180910390a1565b600073ffffffffffffffffffffffffffffffffffffffff82169050919050565b600061087382610848565b9050919050565b61088381610868565b82525050565b600060208201905061089e600083018461087a565b92915050565b6000819050919050565b6108b7816108a4565b82525050565b60006020820190506108d260008301846108ae565b92915050565b600080fd5b6108e681610868565b81146108f157600080fd5b50565b600081359050610903816108dd565b92915050565b60006020828403121561091f5761091e6108d8565b5b600061092d848285016108f4565b91505092915050565b60008115159050919050565b61094b81610936565b82525050565b60006020820190506109666000830184610942565b92915050565b600082825260208201905092915050565b7f5365756c206c6520637265617465757220706575742072657469726572000000600082015250565b60006109b3601d8361096c565b91506109be8261097d565b602082019050919050565b600060208201905081810360008301526109e2816109a6565b9050919050565b7f4c276f626a6563746966206e276573742070617320656e636f7265206174746560008201527f696e740000000000000000000000000000000000000000000000000000000000602082015250565b6000610a4560238361096c565b9150610a50826109e9565b604082019050919050565b60006020820190508181036000830152610a7481610a38565b9050919050565b7f4c657320666f6e6473206f6e742064656a612065746520726574697265730000600082015250565b6000610ab1601e8361096c565b9150610abc82610a7b565b602082019050919050565b60006020820190508181036000830152610ae081610aa4565b9050919050565b600081905092915050565b50565b6000610b02600083610ae7565b9150610b0d82610af2565b600082019050919050565b6000610b2382610af5565b9150819050919050565b7f4c65207472616e73666572742061206563686f75650000000000000000000000600082015250565b6000610b6360158361096c565b9150610b6e82610b2d565b602082019050919050565b60006020820190508181036000830152610b9281610b56565b9050919050565b7f4c612063616d7061676e652065737420746f756a6f75727320656e20636f757260008201527f7300000000000000000000000000000000000000000000000000000000000000602082015250565b6000610bf560218361096c565b9150610c0082610b99565b604082019050919050565b60006020820190508181036000830152610c2481610be8565b9050919050565b7f4c276f626a65637469662061206574652061747465696e742c2070617320646560008201527f2072656d626f757273656d656e74000000000000000000000000000000000000602082015250565b6000610c87602e8361096c565b9150610c9282610c2b565b604082019050919050565b60006020820190508181036000830152610cb681610c7a565b9050919050565b7f417563756e6520636f6e747269627574696f6e20612072656d626f7572736572600082015250565b6000610cf360208361096c565b9150610cfe82610cbd565b602082019050919050565b60006020820190508181036000830152610d2281610ce6565b9050919050565b7f4c652072656d626f757273656d656e742061206563686f756500000000000000600082015250565b6000610d5f60198361096c565b9150610d6a82610d29565b602082019050919050565b60006020820190508181036000830152610d8e81610d52565b9050919050565b6000604082019050610daa600083018561087a565b610db760208301846108ae565b9392505050565b7f4c612063616d7061676e6520657374207465726d696e65650000000000000000600082015250565b6000610df460188361096c565b9150610dff82610dbe565b602082019050919050565b60006020820190508181036000830152610e2381610de7565b9050919050565b7f4c6120636f6e747269627574696f6e20646f697420657472652073757065726960008201527f6575726520612030000000000000000000000000000000000000000000000000602082015250565b6000610e8660288361096c565b9150610e9182610e2a565b604082019050919050565b60006020820190508181036000830152610eb581610e79565b9050919050565b7f4e487b7100000000000000000000000000000000000000000000000000000000600052601160045260246000fd5b6000610ef6826108a4565b9150610f01836108a4565b9250828201905080821115610f1957610f18610ebc565b5b9291505056fea26469706673582212206747abc89f782e383598f484decebe1079c9e9128f36dc5a975d012a531af3a364736f6c63430008180033",
  "linkReferences": {},
  "deployedLinkReferences": {}
}