{"contracts/Crowdfunding.sol":{"Crowdfunding":{"abi":[{"inputs":[{"internalType":"uint256","name":"_goal","type":"uint256"},{"internalType":"uint256","name":"_durationInDays","type":"uint256"}],"stateMutability":"nonpayable","type":"constructor"},{"anonymous":false,"inputs":[{"indexed":false,"internalType":"address","name":"contributor","type":"address"},{"indexed":false,"internalType":"uint256","name":"amount","type":"uint256"}],"name":"ContributionReceived","type":"event"},{"anonymous":false,"inputs":[{"indexed":false,"internalType":"uint256","name":"totalFunds","type":"uint256"}],"name":"GoalReached","type":"event"},{"anonymous":false,"inputs":[{"indexed":false,"internalType":"address","name":"contributor","type":"address"},{"indexed":false,"internalType":"uint256","name":"amount","type":"uint256"}],"name":"RefundIssued","type":"event"},{"inputs":[],"name":"contribute","outputs":[],"stateMutability":"payable","type":"function"},{"inputs":[{"internalType":"address","name":"","type":"address"}],"name":"contributions","outputs":[{"internalType":"uint256","name":"","type":"uint256"}],"stateMutability":"view","type":"function"},{"inputs":[],"name":"creator","outputs":[{"internalType":"address","name":"","type":"address"}],"stateMutability":"view","type":"function"},{"inputs":[],"name":"deadline","outputs":[{"internalType":"uint256","name":"","type":"uint256"}],"stateMutability":"view","type":"function"},{"inputs":[],"name":"goal","outputs":[{"internalType":"uint256","name":"","type":"uint256"}],"stateMutability":"view","type":"function"},{"inputs":[],"name":"isFunded","outputs":[{"internalType":"bool","name":"","type":"bool"}],"stateMutability":"view","type":"function"},{"inputs":[],"name":"refund","outputs":[],"stateMutability":"nonpayable","type":"function"},{"inputs":[],"name":"totalFunds","outputs":[{"internalType":"uint256","name":"","type":"uint256"}],"stateMutability":"view","type":"function"},{"inputs":[],"name":"withdrawFunds","outputs":[],"stateMutability":"nonpayable","type":"function"}],"evm":{"bytecode":{"linkReferences":{},"object":"60806040523480156200001157600080fd5b506040516200114b3803806200114b8339818101604052810190620000379190620000ea565b336000806101000a81548173ffffffffffffffffffffffffffffffffffffffff021916908373ffffffffffffffffffffffffffffffffffffffff1602179055508160018190555062015180816200008f919062000160565b426200009c9190620001ab565b6002819055505050620001e6565b600080fd5b6000819050919050565b620000c481620000af565b8114620000d057600080fd5b50565b600081519050620000e481620000b9565b92915050565b60008060408385031215620001045762000103620000aa565b5b60006200011485828601620000d3565b92505060206200012785828601620000d3565b9150509250929050565b7f4e487b7100000000000000000000000000000000000000000000000000000000600052601160045260246000fd5b60006200016d82620000af565b91506200017a83620000af565b92508282026200018a81620000af565b91508282048414831517620001a457620001a362000131565b5b5092915050565b6000620001b882620000af565b9150620001c583620000af565b9250828201905080821115620001e057620001df62000131565b5b92915050565b610f5580620001f66000396000f3fe6080604052600436106100865760003560e01c806342e94c901161005957806342e94c9014610123578063590e1ae3146101605780637c65430314610177578063968ed600146101a2578063d7bb99ba146101cd57610086565b806302d05d3f1461008b57806324600fc3146100b657806329dcb0cf146100cd57806340193883146100f8575b600080fd5b34801561009757600080fd5b506100a06101d7565b6040516100ad9190610889565b60405180910390f35b3480156100c257600080fd5b506100cb6101fb565b005b3480156100d957600080fd5b506100e261044a565b6040516100ef91906108bd565b60405180910390f35b34801561010457600080fd5b5061010d610450565b60405161011a91906108bd565b60405180910390f35b34801561012f57600080fd5b5061014a60048036038101906101459190610909565b610456565b60405161015791906108bd565b60405180910390f35b34801561016c57600080fd5b5061017561046e565b005b34801561018357600080fd5b5061018c6106ae565b6040516101999190610951565b60405180910390f35b3480156101ae57600080fd5b506101b76106c1565b6040516101c491906108bd565b60405180910390f35b6101d56106c7565b005b60008054906101000a900473ffffffffffffffffffffffffffffffffffffffff1681565b60008054906101000a900473ffffffffffffffffffffffffffffffffffffffff1673ffffffffffffffffffffffffffffffffffffffff163373ffffffffffffffffffffffffffffffffffffffff1614610289576040517f08c379a0000000000000000000000000000000000000000000000000000000008152600401610280906109c9565b60405180910390fd5b60015460035410156102d0576040517f08c379a00000000000000000000000000000000000000000000000000000000081526004016102c790610a5b565b60405180910390fd5b600460009054906101000a900460ff1615610320576040517f08c379a000000000000000000000000000000000000000000000000000000000815260040161031790610ac7565b60405180910390fd5b6001600460006101000a81548160ff0219169083151502179055506000600354905060008060009054906101000a900473ffffffffffffffffffffffffffffffffffffffff1673ffffffffffffffffffffffffffffffffffffffff168260405161038990610b18565b60006040518083038185875af1925050503d80600081146103c6576040519150601f19603f3d011682016040523d82523d6000602084013e6103cb565b606091505b505090508061040f576040517f08c379a000000000000000000000000000000000000000000000000000000000815260040161040690610b79565b60405180910390fd5b7ffbfd8ab7c24300fa9888cd721c8565a7da56759384781283684dcf7c7c4a846b8260405161043e91906108bd565b60405180910390a15050565b60025481565b60015481565b60056020528060005260406000206000915090505481565b6002544210156104b3576040517f08c379a00000000000000000000000000000000000000000000000000000000081526004016104aa90610c0b565b60405180910390fd5b600154600354106104f9576040517f08c379a00000000000000000000000000000000000000000000000000000000081526004016104f090610c9d565b60405180910390fd5b6000600560003373ffffffffffffffffffffffffffffffffffffffff1673ffffffffffffffffffffffffffffffffffffffff16815260200190815260200160002054905060008111610580576040517f08c379a000000000000000000000000000000000000000000000000000000000815260040161057790610d09565b60405180910390fd5b6000600560003373ffffffffffffffffffffffffffffffffffffffff1673ffffffffffffffffffffffffffffffffffffffff1681526020019081526020016000208190555060003373ffffffffffffffffffffffffffffffffffffffff16826040516105eb90610b18565b60006040518083038185875af1925050503d8060008114610628576040519150601f19603f3d011682016040523d82523d6000602084013e61062d565b606091505b5050905080610671576040517f08c379a000000000000000000000000000000000000000000000000000000000815260040161066890610d75565b60405180910390fd5b7fa171b6942063c6f2800ce40a780edce37baa2b618571b11eedd1e69e626e7d7633836040516106a2929190610d95565b60405180910390a15050565b600460009054906101000a900460ff1681565b60035481565b600254421061070b576040517f08c379a000000000000000000000000000000000000000000000000000000000815260040161070290610e0a565b60405180910390fd5b600460009054906101000a900460ff161561075b576040517f08c379a000000000000000000000000000000000000000000000000000000000815260040161075290610ac7565b60405180910390fd5b6000341161079e576040517f08c379a000000000000000000000000000000000000000000000000000000000815260040161079590610e9c565b60405180910390fd5b34600560003373ffffffffffffffffffffffffffffffffffffffff1673ffffffffffffffffffffffffffffffffffffffff16815260200190815260200160002060008282546107ed9190610eeb565b9250508190555034600360008282546108069190610eeb565b925050819055507f1bb460ccaaf70fbacfec17a376f8acbd278c1405590ffcc8ebe4b88daf4f64ad333460405161083e929190610d95565b60405180910390a1565b600073ffffffffffffffffffffffffffffffffffffffff82169050919050565b600061087382610848565b9050919050565b61088381610868565b82525050565b600060208201905061089e600083018461087a565b92915050565b6000819050919050565b6108b7816108a4565b82525050565b60006020820190506108d260008301846108ae565b92915050565b600080fd5b6108e681610868565b81146108f157600080fd5b50565b600081359050610903816108dd565b92915050565b60006020828403121561091f5761091e6108d8565b5b600061092d848285016108f4565b91505092915050565b60008115159050919050565b61094b81610936565b82525050565b60006020820190506109666000830184610942565b92915050565b600082825260208201905092915050565b7f5365756c206c6520637265617465757220706575742072657469726572000000600082015250565b60006109b3601d8361096c565b91506109be8261097d565b602082019050919050565b600060208201905081810360008301526109e2816109a6565b9050919050565b7f4c276f626a6563746966206e276573742070617320656e636f7265206174746560008201527f696e740000000000000000000000000000000000000000000000000000000000602082015250565b6000610a4560238361096c565b9150610a50826109e9565b604082019050919050565b60006020820190508181036000830152610a7481610a38565b9050919050565b7f4c657320666f6e6473206f6e742064656a612065746520726574697265730000600082015250565b6000610ab1601e8361096c565b9150610abc82610a7b565b602082019050919050565b60006020820190508181036000830152610ae081610aa4565b9050919050565b600081905092915050565b50565b6000610b02600083610ae7565b9150610b0d82610af2565b600082019050919050565b6000610b2382610af5565b9150819050919050565b7f4c65207472616e73666572742061206563686f75650000000000000000000000600082015250565b6000610b6360158361096c565b9150610b6e82610b2d565b602082019050919050565b60006020820190508181036000830152610b9281610b56565b9050919050565b7f4c612063616d7061676e652065737420746f756a6f75727320656e20636f757260008201527f7300000000000000000000000000000000000000000000000000000000000000602082015250565b6000610bf560218361096c565b9150610c0082610b99565b604082019050919050565b60006020820190508181036000830152610c2481610be8565b9050919050565b7f4c276f626a65637469662061206574652061747465696e742c2070617320646560008201527f2072656d626f757273656d656e74000000000000000000000000000000000000602082015250565b6000610c87602e8361096c565b9150610c9282610c2b565b604082019050919050565b60006020820190508181036000830152610cb681610c7a565b9050919050565b7f417563756e6520636f6e747269627574696f6e20612072656d626f7572736572600082015250565b6000610cf360208361096c565b9150610cfe82610cbd565b602082019050919050565b60006020820190508181036000830152610d2281610ce6565b9050919050565b7f4c652072656d626f757273656d656e742061206563686f756500000000000000600082015250565b6000610d5f60198361096c565b9150610d6a82610d29565b602082019050919050565b60006020820190508181036000830152610d8e81610d52565b9050919050565b6000604082019050610daa600083018561087a565b610db760208301846108ae565b9392505050565b7f4c612063616d7061676e6520657374207465726d696e65650000000000000000600082015250565b6000610df460188361096c565b9150610dff82610dbe565b602082019050919050565b60006020820190508181036000830152610e2381610de7565b9050919050565b7f4c6120636f6e747269627574696f6e20646f697420657472652073757065726960008201527f6575726520612030000000000000000000000000000000000000000000000000602082015250565b6000610e8660288361096c565b9150610e9182610e2a565b604082019050919050565b60006020820190508181036000830152610eb581610e79565b9050919050565b7f4e487b7100000000000000000000000000000000000000000000000000000000600052601160045260246000fd5b6000610ef6826108a4565b9150610f01836108a4565b9250828201905080821115610f1957610f18610ebc565b5b9291505056fea2646970667358221220f12e3ab263f6ebc9fda14582260e911ecbbf97cbda0e8c5b700354e9c338fe3764736f6c63430008180033","opcodes":"PUSH1 0x80 PUSH1 0x40 MSTORE CALLVALUE DUP1 ISZERO PUSH3 0x11 JUMPI PUSH1 0x0 DUP1 REVERT JUMPDEST POP PUSH1 0x40 MLOAD PUSH3 0x114B CODESIZE SUB DUP1 PUSH3 0x114B DUP4 CODECOPY DUP2 DUP2 ADD PUSH1 0x40 MSTORE DUP2 ADD SWAP1 PUSH3 0x37 SWAP2 SWAP1 PUSH3 0xEA JUMP JUMPDEST CALLER PUSH1 0x0 DUP1 PUSH2 0x100 EXP DUP2 SLOAD DUP2 PUSH20 0xFFFFFFFFFFFFFFFFFFFFFFFFFFFFFFFFFFFFFFFF MUL NOT AND SWAP1 DUP4 PUSH20 0xFFFFFFFFFFFFFFFFFFFFFFFFFFFFFFFFFFFFFFFF AND MUL OR SWAP1 SSTORE POP DUP2 PUSH1 0x1 DUP2 SWAP1 SSTORE POP PUSH3 0x15180 DUP2 PUSH3 0x8F SWAP2 SWAP1 PUSH3 0x160 JUMP JUMPDEST TIMESTAMP PUSH3 0x9C SWAP2 SWAP1 PUSH3 0x1AB JUMP JUMPDEST PUSH1 0x2 DUP2 SWAP1 SSTORE POP POP POP PUSH3 0x1E6 JUMP JUMPDEST PUSH1 0x0 DUP1 REVERT JUMPDEST PUSH1 0x0 DUP2 SWAP1 POP SWAP2 SWAP1 POP JUMP JUMPDEST PUSH3 0xC4 DUP2 PUSH3 0xAF JUMP JUMPDEST DUP2 EQ PUSH3 0xD0 JUMPI PUSH1 0x0 DUP1 REVERT JUMPDEST POP JUMP JUMPDEST PUSH1 0x0 DUP2 MLOAD SWAP1 POP PUSH3 0xE4 DUP2 PUSH3 0xB9 JUMP JUMPDEST SWAP3 SWAP2 POP POP JUMP JUMPDEST PUSH1 0x0 DUP1 PUSH1 0x40 DUP4 DUP6 SUB SLT ISZERO PUSH3 0x104 JUMPI PUSH3 0x103 PUSH3 0xAA JUMP JUMPDEST JUMPDEST PUSH1 0x0 PUSH3 0x114 DUP6 DUP3 DUP7 ADD PUSH3 0xD3 JUMP JUMPDEST SWAP3 POP POP PUSH1 0x20 PUSH3 0x127 DUP6 DUP3 DUP7 ADD PUSH3 0xD3 JUMP JUMPDEST SWAP2 POP POP SWAP3 POP SWAP3 SWAP1 POP JUMP JUMPDEST PUSH32 0x4E487B7100000000000000000000000000000000000000000000000000000000 PUSH1 0x0 MSTORE PUSH1 0x11 PUSH1 0x4 MSTORE PUSH1 0x24 PUSH1 0x0 REVERT JUMPDEST PUSH1 0x0 PUSH3 0x16D DUP3 PUSH3 0xAF JUMP JUMPDEST SWAP2 POP PUSH3 0x17A DUP4 PUSH3 0xAF JUMP JUMPDEST SWAP3 POP DUP3 DUP3 MUL PUSH3 0x18A DUP2 PUSH3 0xAF JUMP JUMPDEST SWAP2 POP DUP3 DUP3 DIV DUP5 EQ DUP4 ISZERO OR PUSH3 0x1A4 JUMPI PUSH3 0x1A3 PUSH3 0x131 JUMP JUMPDEST JUMPDEST POP SWAP3 SWAP2 POP POP JUMP JUMPDEST PUSH1 0x0 PUSH3 0x1B8 DUP3 PUSH3 0xAF JUMP JUMPDEST SWAP2 POP PUSH3 0x1C5 DUP4 PUSH3 0xAF JUMP JUMPDEST SWAP3 POP DUP3 DUP3 ADD SWAP1 POP DUP1 DUP3 GT ISZERO PUSH3 0x1E0 JUMPI PUSH3 0x1DF PUSH3 0x131 JUMP JUMPDEST JUMPDEST SWAP3 SWAP2 POP POP JUMP JUMPDEST PUSH2 0xF55 DUP1 PUSH3 0x1F6 PUSH1 0x0 CODECOPY PUSH1 0x0 RETURN INVALID PUSH1 0x80 PUSH1 0x40 MSTORE PUSH1 0x4 CALLDATASIZE LT PUSH2 0x86 JUMPI PUSH1 0x0 CALLDATALOAD PUSH1 0xE0 SHR DUP1 PUSH4 0x42E94C90 GT PUSH2 0x59 JUMPI DUP1 PUSH4 0x42E94C90 EQ PUSH2 0x123 JUMPI DUP1 PUSH4 0x590E1AE3 EQ PUSH2 0x160 JUMPI DUP1 PUSH4 0x7C654303 EQ PUSH2 0x177 JUMPI DUP1 PUSH4 0x968ED600 EQ PUSH2 0x1A2 JUMPI DUP1 PUSH4 0xD7BB99BA EQ PUSH2 0x1CD JUMPI PUSH2 0x86 JUMP JUMPDEST DUP1 PUSH4 0x2D05D3F EQ PUSH2 0x8B JUMPI DUP1 PUSH4 0x24600FC3 EQ PUSH2 0xB6 JUMPI DUP1 PUSH4 0x29DCB0CF EQ PUSH2 0xCD JUMPI DUP1 PUSH4 0x40193883 EQ PUSH2 0xF8 JUMPI JUMPDEST PUSH1 0x0 DUP1 REVERT JUMPDEST CALLVALUE DUP1 ISZERO PUSH2 0x97 JUMPI PUSH1 0x0 DUP1 REVERT JUMPDEST POP PUSH2 0xA0 PUSH2 0x1D7 JUMP JUMPDEST PUSH1 0x40 MLOAD PUSH2 0xAD SWAP2 SWAP1 PUSH2 0x889 JUMP JUMPDEST PUSH1 0x40 MLOAD DUP1 SWAP2 SUB SWAP1 RETURN JUMPDEST CALLVALUE DUP1 ISZERO PUSH2 0xC2 JUMPI PUSH1 0x0 DUP1 REVERT JUMPDEST POP PUSH2 0xCB PUSH2 0x1FB JUMP JUMPDEST STOP JUMPDEST CALLVALUE DUP1 ISZERO PUSH2 0xD9 JUMPI PUSH1 0x0 DUP1 REVERT JUMPDEST POP PUSH2 0xE2 PUSH2 0x44A JUMP JUMPDEST PUSH1 0x40 MLOAD PUSH2 0xEF SWAP2 SWAP1 PUSH2 0x8BD JUMP JUMPDEST PUSH1 0x40 MLOAD DUP1 SWAP2 SUB SWAP1 RETURN JUMPDEST CALLVALUE DUP1 ISZERO PUSH2 0x104 JUMPI PUSH1 0x0 DUP1 REVERT JUMPDEST POP PUSH2 0x10D PUSH2 0x450 JUMP JUMPDEST PUSH1 0x40 MLOAD PUSH2 0x11A SWAP2 SWAP1 PUSH2 0x8BD JUMP JUMPDEST PUSH1 0x40 MLOAD DUP1 SWAP2 SUB SWAP1 RETURN JUMPDEST CALLVALUE DUP1 ISZERO PUSH2 0x12F JUMPI PUSH1 0x0 DUP1 REVERT JUMPDEST POP PUSH2 0x14A PUSH1 0x4 DUP1 CALLDATASIZE SUB DUP2 ADD SWAP1 PUSH2 0x145 SWAP2 SWAP1 PUSH2 0x909 JUMP JUMPDEST PUSH2 0x456 JUMP JUMPDEST PUSH1 0x40 MLOAD PUSH2 0x157 SWAP2 SWAP1 PUSH2 0x8BD JUMP JUMPDEST PUSH1 0x40 MLOAD DUP1 SWAP2 SUB SWAP1 RETURN JUMPDEST CALLVALUE DUP1 ISZERO PUSH2 0x16C JUMPI PUSH1 0x0 DUP1 REVERT JUMPDEST POP PUSH2 0x175 PUSH2 0x46E JUMP JUMPDEST STOP JUMPDEST CALLVALUE DUP1 ISZERO PUSH2 0x183 JUMPI PUSH1 0x0 DUP1 REVERT JUMPDEST POP PUSH2 0x18C PUSH2 0x6AE JUMP JUMPDEST PUSH1 0x40 MLOAD PUSH2 0x199 SWAP2 SWAP1 PUSH2 0x951 JUMP JUMPDEST PUSH1 0x40 MLOAD DUP1 SWAP2 SUB SWAP1 RETURN JUMPDEST CALLVALUE DUP1 ISZERO PUSH2 0x1AE JUMPI PUSH1 0x0 DUP1 REVERT JUMPDEST POP PUSH2 0x1B7 PUSH2 0x6C1 JUMP JUMPDEST PUSH1 0x40 MLOAD PUSH2 0x1C4 SWAP2 SWAP1 PUSH2 0x8BD JUMP JUMPDEST PUSH1 0x40 MLOAD DUP1 SWAP2 SUB SWAP1 RETURN JUMPDEST PUSH2 0x1D5 PUSH2 0x6C7 JUMP JUMPDEST STOP JUMPDEST PUSH1 0x0 DUP1 SLOAD SWAP1 PUSH2 0x100 EXP SWAP1 DIV PUSH20 0xFFFFFFFFFFFFFFFFFFFFFFFFFFFFFFFFFFFFFFFF AND DUP2 JUMP JUMPDEST PUSH1 0x0 DUP1 SLOAD SWAP1 PUSH2 0x100 EXP SWAP1 DIV PUSH20 0xFFFFFFFFFFFFFFFFFFFFFFFFFFFFFFFFFFFFFFFF AND PUSH20 0xFFFFFFFFFFFFFFFFFFFFFFFFFFFFFFFFFFFFFFFF AND CALLER PUSH20 0xFFFFFFFFFFFFFFFFFFFFFFFFFFFFFFFFFFFFFFFF AND EQ PUSH2 0x289 JUMPI PUSH1 0x40 MLOAD PUSH32 0x8C379A000000000000000000000000000000000000000000000000000000000 DUP2 MSTORE PUSH1 0x4 ADD PUSH2 0x280 SWAP1 PUSH2 0x9C9 JUMP JUMPDEST PUSH1 0x40 MLOAD DUP1 SWAP2 SUB SWAP1 REVERT JUMPDEST PUSH1 0x1 SLOAD PUSH1 0x3 SLOAD LT ISZERO PUSH2 0x2D0 JUMPI PUSH1 0x40 MLOAD PUSH32 0x8C379A000000000000000000000000000000000000000000000000000000000 DUP2 MSTORE PUSH1 0x4 ADD PUSH2 0x2C7 SWAP1 PUSH2 0xA5B JUMP JUMPDEST PUSH1 0x40 MLOAD DUP1 SWAP2 SUB SWAP1 REVERT JUMPDEST PUSH1 0x4 PUSH1 0x0 SWAP1 SLOAD SWAP1 PUSH2 0x100 EXP SWAP1 DIV PUSH1 0xFF AND ISZERO PUSH2 0x320 JUMPI PUSH1 0x40 MLOAD PUSH32 0x8C379A000000000000000000000000000000000000000000000000000000000 DUP2 MSTORE PUSH1 0x4 ADD PUSH2 0x317 SWAP1 PUSH2 0xAC7 JUMP JUMPDEST PUSH1 0x40 MLOAD DUP1 SWAP2 SUB SWAP1 REVERT JUMPDEST PUSH1 0x1 PUSH1 0x4 PUSH1 0x0 PUSH2 0x100 EXP DUP2 SLOAD DUP2 PUSH1 0xFF MUL NOT AND SWAP1 DUP4 ISZERO ISZERO MUL OR SWAP1 SSTORE POP PUSH1 0x0 PUSH1 0x3 SLOAD SWAP1 POP PUSH1 0x0 DUP1 PUSH1 0x0 SWAP1 SLOAD SWAP1 PUSH2 0x100 EXP SWAP1 DIV PUSH20 0xFFFFFFFFFFFFFFFFFFFFFFFFFFFFFFFFFFFFFFFF AND PUSH20 0xFFFFFFFFFFFFFFFFFFFFFFFFFFFFFFFFFFFFFFFF AND DUP3 PUSH1 0x40 MLOAD PUSH2 0x389 SWAP1 PUSH2 0xB18 JUMP JUMPDEST PUSH1 0x0 PUSH1 0x40 MLOAD DUP1 DUP4 SUB DUP2 DUP6 DUP8 GAS CALL SWAP3 POP POP POP RETURNDATASIZE DUP1 PUSH1 0x0 DUP2 EQ PUSH2 0x3C6 JUMPI PUSH1 0x40 MLOAD SWAP2 POP PUSH1 0x1F NOT PUSH1 0x3F RETURNDATASIZE ADD AND DUP3 ADD PUSH1 0x40 MSTORE RETURNDATASIZE DUP3 MSTORE RETURNDATASIZE PUSH1 0x0 PUSH1 0x20 DUP5 ADD RETURNDATACOPY PUSH2 0x3CB JUMP JUMPDEST PUSH1 0x60 SWAP2 POP JUMPDEST POP POP SWAP1 POP DUP1 PUSH2 0x40F JUMPI PUSH1 0x40 MLOAD PUSH32 0x8C379A000000000000000000000000000000000000000000000000000000000 DUP2 MSTORE PUSH1 0x4 ADD PUSH2 0x406 SWAP1 PUSH2 0xB79 JUMP JUMPDEST PUSH1 0x40 MLOAD DUP1 SWAP2 SUB SWAP1 REVERT JUMPDEST PUSH32 0xFBFD8AB7C24300FA9888CD721C8565A7DA56759384781283684DCF7C7C4A846B DUP3 PUSH1 0x40 MLOAD PUSH2 0x43E SWAP2 SWAP1 PUSH2 0x8BD JUMP JUMPDEST PUSH1 0x40 MLOAD DUP1 SWAP2 SUB SWAP1 LOG1 POP POP JUMP JUMPDEST PUSH1 0x2 SLOAD DUP2 JUMP JUMPDEST PUSH1 0x1 SLOAD DUP2 JUMP JUMPDEST PUSH1 0x5 PUSH1 0x20 MSTORE DUP1 PUSH1 0x0 MSTORE PUSH1 0x40 PUSH1 0x0 KECCAK256 PUSH1 0x0 SWAP2 POP SWAP1 POP SLOAD DUP2 JUMP JUMPDEST PUSH1 0x2 SLOAD TIMESTAMP LT ISZERO PUSH2 0x4B3 JUMPI PUSH1 0x40 MLOAD PUSH32 0x8C379A000000000000000000000000000000000000000000000000000000000 DUP2 MSTORE PUSH1 0x4 ADD PUSH2 0x4AA SWAP1 PUSH2 0xC0B JUMP JUMPDEST PUSH1 0x40 MLOAD DUP1 SWAP2 SUB SWAP1 REVERT JUMPDEST PUSH1 0x1 SLOAD PUSH1 0x3 SLOAD LT PUSH2 0x4F9 JUMPI PUSH1 0x40 MLOAD PUSH32 0x8C379A000000000000000000000000000000000000000000000000000000000 DUP2 MSTORE PUSH1 0x4 ADD PUSH2 0x4F0 SWAP1 PUSH2 0xC9D JUMP JUMPDEST PUSH1 0x40 MLOAD DUP1 SWAP2 SUB SWAP1 REVERT JUMPDEST PUSH1 0x0 PUSH1 0x5 PUSH1 0x0 CALLER PUSH20 0xFFFFFFFFFFFFFFFFFFFFFFFFFFFFFFFFFFFFFFFF AND PUSH20 0xFFFFFFFFFFFFFFFFFFFFFFFFFFFFFFFFFFFFFFFF AND DUP2 MSTORE PUSH1 0x20 ADD SWAP1 DUP2 MSTORE PUSH1 0x20 ADD PUSH1 0x0 KECCAK256 SLOAD SWAP1 POP PUSH1 0x0 DUP2 GT PUSH2 0x580 JUMPI PUSH1 0x40 MLOAD PUSH32 0x8C379A000000000000000000000000000000000000000000000000000000000 DUP2 MSTORE PUSH1 0x4 ADD PUSH2 0x577 SWAP1 PUSH2 0xD09 JUMP JUMPDEST PUSH1 0x40 MLOAD DUP1 SWAP2 SUB SWAP1 REVERT JUMPDEST PUSH1 0x0 PUSH1 0x5 PUSH1 0x0 CALLER PUSH20 0xFFFFFFFFFFFFFFFFFFFFFFFFFFFFFFFFFFFFFFFF AND PUSH20 0xFFFFFFFFFFFFFFFFFFFFFFFFFFFFFFFFFFFFFFFF AND DUP2 MSTORE PUSH1 0x20 ADD SWAP1 DUP2 MSTORE PUSH1 0x20 ADD PUSH1 0x0 KECCAK256 DUP2 SWAP1 SSTORE POP PUSH1 0x0 CALLER PUSH20 0xFFFFFFFFFFFFFFFFFFFFFFFFFFFFFFFFFFFFFFFF AND DUP3 PUSH1 0x40 MLOAD PUSH2 0x5EB SWAP1 PUSH2 0xB18 JUMP JUMPDEST PUSH1 0x0 PUSH1 0x40 MLOAD DUP1 DUP4 SUB DUP2 DUP6 DUP8 GAS CALL SWAP3 POP POP POP RETURNDATASIZE DUP1 PUSH1 0x0 DUP2 EQ PUSH2 0x628 JUMPI PUSH1 0x40 MLOAD SWAP2 POP PUSH1 0x1F NOT PUSH1 0x3F RETURNDATASIZE ADD AND DUP3 ADD PUSH1 0x40 MSTORE RETURNDATASIZE DUP3 MSTORE RETURNDATASIZE PUSH1 0x0 PUSH1 0x20 DUP5 ADD RETURNDATACOPY PUSH2 0x62D JUMP JUMPDEST PUSH1 0x60 SWAP2 POP JUMPDEST POP POP SWAP1 POP DUP1 PUSH2 0x671 JUMPI PUSH1 0x40 MLOAD PUSH32 0x8C379A000000000000000000000000000000000000000000000000000000000 DUP2 MSTORE PUSH1 0x4 ADD PUSH2 0x668 SWAP1 PUSH2 0xD75 JUMP JUMPDEST PUSH1 0x40 MLOAD DUP1 SWAP2 SUB SWAP1 REVERT JUMPDEST PUSH32 0xA171B6942063C6F2800CE40A780EDCE37BAA2B618571B11EEDD1E69E626E7D76 CALLER DUP4 PUSH1 0x40 MLOAD PUSH2 0x6A2 SWAP3 SWAP2 SWAP1 PUSH2 0xD95 JUMP JUMPDEST PUSH1 0x40 MLOAD DUP1 SWAP2 SUB SWAP1 LOG1 POP POP JUMP JUMPDEST PUSH1 0x4 PUSH1 0x0 SWAP1 SLOAD SWAP1 PUSH2 0x100 EXP SWAP1 DIV PUSH1 0xFF AND DUP2 JUMP JUMPDEST PUSH1 0x3 SLOAD DUP2 JUMP JUMPDEST PUSH1 0x2 SLOAD TIMESTAMP LT PUSH2 0x70B JUMPI PUSH1 0x40 MLOAD PUSH32 0x8C379A000000000000000000000000000000000000000000000000000000000 DUP2 MSTORE PUSH1 0x4 ADD PUSH2 0x702 SWAP1 PUSH2 0xE0A JUMP JUMPDEST PUSH1 0x40 MLOAD DUP1 SWAP2 SUB SWAP1 REVERT JUMPDEST PUSH1 0x4 PUSH1 0x0 SWAP1 SLOAD SWAP1 PUSH2 0x100 EXP SWAP1 DIV PUSH1 0xFF AND ISZERO PUSH2 0x75B JUMPI PUSH1 0x40 MLOAD PUSH32 0x8C379A000000000000000000000000000000000000000000000000000000000 DUP2 MSTORE PUSH1 0x4 ADD PUSH2 0x752 SWAP1 PUSH2 0xAC7 JUMP JUMPDEST PUSH1 0x40 MLOAD DUP1 SWAP2 SUB SWAP1 REVERT JUMPDEST PUSH1 0x0 CALLVALUE GT PUSH2 0x79E JUMPI PUSH1 0x40 MLOAD PUSH32 0x8C379A000000000000000000000000000000000000000000000000000000000 DUP2 MSTORE PUSH1 0x4 ADD PUSH2 0x795 SWAP1 PUSH2 0xE9C JUMP JUMPDEST PUSH1 0x40 MLOAD DUP1 SWAP2 SUB SWAP1 REVERT JUMPDEST CALLVALUE PUSH1 0x5 PUSH1 0x0 CALLER PUSH20 0xFFFFFFFFFFFFFFFFFFFFFFFFFFFFFFFFFFFFFFFF AND PUSH20 0xFFFFFFFFFFFFFFFFFFFFFFFFFFFFFFFFFFFFFFFF AND DUP2 MSTORE PUSH1 0x20 ADD SWAP1 DUP2 MSTORE PUSH1 0x20 ADD PUSH1 0x0 KECCAK256 PUSH1 0x0 DUP3 DUP3 SLOAD PUSH2 0x7ED SWAP2 SWAP1 PUSH2 0xEEB JUMP JUMPDEST SWAP3 POP POP DUP2 SWAP1 SSTORE POP CALLVALUE PUSH1 0x3 PUSH1 0x0 DUP3 DUP3 SLOAD PUSH2 0x806 SWAP2 SWAP1 PUSH2 0xEEB JUMP JUMPDEST SWAP3 POP POP DUP2 SWAP1 SSTORE POP PUSH32 0x1BB460CCAAF70FBACFEC17A376F8ACBD278C1405590FFCC8EBE4B88DAF4F64AD CALLER CALLVALUE PUSH1 0x40 MLOAD PUSH2 0x83E SWAP3 SWAP2 SWAP1 PUSH2 0xD95 JUMP JUMPDEST PUSH1 0x40 MLOAD DUP1 SWAP2 SUB SWAP1 LOG1 JUMP JUMPDEST PUSH1 0x0 PUSH20 0xFFFFFFFFFFFFFFFFFFFFFFFFFFFFFFFFFFFFFFFF DUP3 AND SWAP1 POP SWAP2 SWAP1 POP JUMP JUMPDEST PUSH1 0x0 PUSH2 0x873 DUP3 PUSH2 0x848 JUMP JUMPDEST SWAP1 POP SWAP2 SWAP1 POP JUMP JUMPDEST PUSH2 0x883 DUP2 PUSH2 0x868 JUMP JUMPDEST DUP3 MSTORE POP POP JUMP JUMPDEST PUSH1 0x0 PUSH1 0x20 DUP3 ADD SWAP1 POP PUSH2 0x89E PUSH1 0x0 DUP4 ADD DUP5 PUSH2 0x87A JUMP JUMPDEST SWAP3 SWAP2 POP POP JUMP JUMPDEST PUSH1 0x0 DUP2 SWAP1 POP SWAP2 SWAP1 POP JUMP JUMPDEST PUSH2 0x8B7 DUP2 PUSH2 0x8A4 JUMP JUMPDEST DUP3 MSTORE POP POP JUMP JUMPDEST PUSH1 0x0 PUSH1 0x20 DUP3 ADD SWAP1 POP PUSH2 0x8D2 PUSH1 0x0 DUP4 ADD DUP5 PUSH2 0x8AE JUMP JUMPDEST SWAP3 SWAP2 POP POP JUMP JUMPDEST PUSH1 0x0 DUP1 REVERT JUMPDEST PUSH2 0x8E6 DUP2 PUSH2 0x868 JUMP JUMPDEST DUP2 EQ PUSH2 0x8F1 JUMPI PUSH1 0x0 DUP1 REVERT JUMPDEST POP JUMP JUMPDEST PUSH1 0x0 DUP2 CALLDATALOAD SWAP1 POP PUSH2 0x903 DUP2 PUSH2 0x8DD JUMP JUMPDEST SWAP3 SWAP2 POP POP JUMP JUMPDEST PUSH1 0x0 PUSH1 0x20 DUP3 DUP5 SUB SLT ISZERO PUSH2 0x91F JUMPI PUSH2 0x91E PUSH2 0x8D8 JUMP JUMPDEST JUMPDEST PUSH1 0x0 PUSH2 0x92D DUP5 DUP3 DUP6 ADD PUSH2 0x8F4 JUMP JUMPDEST SWAP2 POP POP SWAP3 SWAP2 POP POP JUMP JUMPDEST PUSH1 0x0 DUP2 ISZERO ISZERO SWAP1 POP SWAP2 SWAP1 POP JUMP JUMPDEST PUSH2 0x94B DUP2 PUSH2 0x936 JUMP JUMPDEST DUP3 MSTORE POP POP JUMP JUMPDEST PUSH1 0x0 PUSH1 0x20 DUP3 ADD SWAP1 POP PUSH2 0x966 PUSH1 0x0 DUP4 ADD DUP5 PUSH2 0x942 JUMP JUMPDEST SWAP3 SWAP2 POP POP JUMP JUMPDEST PUSH1 0x0 DUP3 DUP3 MSTORE PUSH1 0x20 DUP3 ADD SWAP1 POP SWAP3 SWAP2 POP POP JUMP JUMPDEST PUSH32 0x5365756C206C6520637265617465757220706575742072657469726572000000 PUSH1 0x0 DUP3 ADD MSTORE POP JUMP JUMPDEST PUSH1 0x0 PUSH2 0x9B3 PUSH1 0x1D DUP4 PUSH2 0x96C JUMP JUMPDEST SWAP2 POP PUSH2 0x9BE DUP3 PUSH2 0x97D JUMP JUMPDEST PUSH1 0x20 DUP3 ADD SWAP1 POP SWAP2 SWAP1 POP JUMP JUMPDEST PUSH1 0x0 PUSH1 0x20 DUP3 ADD SWAP1 POP DUP2 DUP2 SUB PUSH1 0x0 DUP4 ADD MSTORE PUSH2 0x9E2 DUP2 PUSH2 0x9A6 JUMP JUMPDEST SWAP1 POP SWAP2 SWAP1 POP JUMP JUMPDEST PUSH32 0x4C276F626A6563746966206E276573742070617320656E636F72652061747465 PUSH1 0x0 DUP3 ADD MSTORE PUSH32 0x696E740000000000000000000000000000000000000000000000000000000000 PUSH1 0x20 DUP3 ADD MSTORE POP JUMP JUMPDEST PUSH1 0x0 PUSH2 0xA45 PUSH1 0x23 DUP4 PUSH2 0x96C JUMP JUMPDEST SWAP2 POP PUSH2 0xA50 DUP3 PUSH2 0x9E9 JUMP JUMPDEST PUSH1 0x40 DUP3 ADD SWAP1 POP SWAP2 SWAP1 POP JUMP JUMPDEST PUSH1 0x0 PUSH1 0x20 DUP3 ADD SWAP1 POP DUP2 DUP2 SUB PUSH1 0x0 DUP4 ADD MSTORE PUSH2 0xA74 DUP2 PUSH2 0xA38 JUMP JUMPDEST SWAP1 POP SWAP2 SWAP1 POP JUMP JUMPDEST PUSH32 0x4C657320666F6E6473206F6E742064656A612065746520726574697265730000 PUSH1 0x0 DUP3 ADD MSTORE POP JUMP JUMPDEST PUSH1 0x0 PUSH2 0xAB1 PUSH1 0x1E DUP4 PUSH2 0x96C JUMP JUMPDEST SWAP2 POP PUSH2 0xABC DUP3 PUSH2 0xA7B JUMP JUMPDEST PUSH1 0x20 DUP3 ADD SWAP1 POP SWAP2 SWAP1 POP JUMP JUMPDEST PUSH1 0x0 PUSH1 0x20 DUP3 ADD SWAP1 POP DUP2 DUP2 SUB PUSH1 0x0 DUP4 ADD MSTORE PUSH2 0xAE0 DUP2 PUSH2 0xAA4 JUMP JUMPDEST SWAP1 POP SWAP2 SWAP1 POP JUMP JUMPDEST PUSH1 0x0 DUP2 SWAP1 POP SWAP3 SWAP2 POP POP JUMP JUMPDEST POP JUMP JUMPDEST PUSH1 0x0 PUSH2 0xB02 PUSH1 0x0 DUP4 PUSH2 0xAE7 JUMP JUMPDEST SWAP2 POP PUSH2 0xB0D DUP3 PUSH2 0xAF2 JUMP JUMPDEST PUSH1 0x0 DUP3 ADD SWAP1 POP SWAP2 SWAP1 POP JUMP JUMPDEST PUSH1 0x0 PUSH2 0xB23 DUP3 PUSH2 0xAF5 JUMP JUMPDEST SWAP2 POP DUP2 SWAP1 POP SWAP2 SWAP1 POP JUMP JUMPDEST PUSH32 0x4C65207472616E73666572742061206563686F75650000000000000000000000 PUSH1 0x0 DUP3 ADD MSTORE POP JUMP JUMPDEST PUSH1 0x0 PUSH2 0xB63 PUSH1 0x15 DUP4 PUSH2 0x96C JUMP JUMPDEST SWAP2 POP PUSH2 0xB6E DUP3 PUSH2 0xB2D JUMP JUMPDEST PUSH1 0x20 DUP3 ADD SWAP1 POP SWAP2 SWAP1 POP JUMP JUMPDEST PUSH1 0x0 PUSH1 0x20 DUP3 ADD SWAP1 POP DUP2 DUP2 SUB PUSH1 0x0 DUP4 ADD MSTORE PUSH2 0xB92 DUP2 PUSH2 0xB56 JUMP JUMPDEST SWAP1 POP SWAP2 SWAP1 POP JUMP JUMPDEST PUSH32 0x4C612063616D7061676E652065737420746F756A6F75727320656E20636F7572 PUSH1 0x0 DUP3 ADD MSTORE PUSH32 0x7300000000000000000000000000000000000000000000000000000000000000 PUSH1 0x20 DUP3 ADD MSTORE POP JUMP JUMPDEST PUSH1 0x0 PUSH2 0xBF5 PUSH1 0x21 DUP4 PUSH2 0x96C JUMP JUMPDEST SWAP2 POP PUSH2 0xC00 DUP3 PUSH2 0xB99 JUMP JUMPDEST PUSH1 0x40 DUP3 ADD SWAP1 POP SWAP2 SWAP1 POP JUMP JUMPDEST PUSH1 0x0 PUSH1 0x20 DUP3 ADD SWAP1 POP DUP2 DUP2 SUB PUSH1 0x0 DUP4 ADD MSTORE PUSH2 0xC24 DUP2 PUSH2 0xBE8 JUMP JUMPDEST SWAP1 POP SWAP2 SWAP1 POP JUMP JUMPDEST PUSH32 0x4C276F626A65637469662061206574652061747465696E742C20706173206465 PUSH1 0x0 DUP3 ADD MSTORE PUSH32 0x2072656D626F757273656D656E74000000000000000000000000000000000000 PUSH1 0x20 DUP3 ADD MSTORE POP JUMP JUMPDEST PUSH1 0x0 PUSH2 0xC87 PUSH1 0x2E DUP4 PUSH2 0x96C JUMP JUMPDEST SWAP2 POP PUSH2 0xC92 DUP3 PUSH2 0xC2B JUMP JUMPDEST PUSH1 0x40 DUP3 ADD SWAP1 POP SWAP2 SWAP1 POP JUMP JUMPDEST PUSH1 0x0 PUSH1 0x20 DUP3 ADD SWAP1 POP DUP2 DUP2 SUB PUSH1 0x0 DUP4 ADD MSTORE PUSH2 0xCB6 DUP2 PUSH2 0xC7A JUMP JUMPDEST SWAP1 POP SWAP2 SWAP1 POP JUMP JUMPDEST PUSH32 0x417563756E6520636F6E747269627574696F6E20612072656D626F7572736572 PUSH1 0x0 DUP3 ADD MSTORE POP JUMP JUMPDEST PUSH1 0x0 PUSH2 0xCF3 PUSH1 0x20 DUP4 PUSH2 0x96C JUMP JUMPDEST SWAP2 POP PUSH2 0xCFE DUP3 PUSH2 0xCBD JUMP JUMPDEST PUSH1 0x20 DUP3 ADD SWAP1 POP SWAP2 SWAP1 POP JUMP JUMPDEST PUSH1 0x0 PUSH1 0x20 DUP3 ADD SWAP1 POP DUP2 DUP2 SUB PUSH1 0x0 DUP4 ADD MSTORE PUSH2 0xD22 DUP2 PUSH2 0xCE6 JUMP JUMPDEST SWAP1 POP SWAP2 SWAP1 POP JUMP JUMPDEST PUSH32 0x4C652072656D626F757273656D656E742061206563686F756500000000000000 PUSH1 0x0 DUP3 ADD MSTORE POP JUMP JUMPDEST PUSH1 0x0 PUSH2 0xD5F PUSH1 0x19 DUP4 PUSH2 0x96C JUMP JUMPDEST SWAP2 POP PUSH2 0xD6A DUP3 PUSH2 0xD29 JUMP JUMPDEST PUSH1 0x20 DUP3 ADD SWAP1 POP SWAP2 SWAP1 POP JUMP JUMPDEST PUSH1 0x0 PUSH1 0x20 DUP3 ADD SWAP1 POP DUP2 DUP2 SUB PUSH1 0x0 DUP4 ADD MSTORE PUSH2 0xD8E DUP2 PUSH2 0xD52 JUMP JUMPDEST SWAP1 POP SWAP2 SWAP1 POP JUMP JUMPDEST PUSH1 0x0 PUSH1 0x40 DUP3 ADD SWAP1 POP PUSH2 0xDAA PUSH1 0x0 DUP4 ADD DUP6 PUSH2 0x87A JUMP JUMPDEST PUSH2 0xDB7 PUSH1 0x20 DUP4 ADD DUP5 PUSH2 0x8AE JUMP JUMPDEST SWAP4 SWAP3 POP POP POP JUMP JUMPDEST PUSH32 0x4C612063616D7061676E6520657374207465726D696E65650000000000000000 PUSH1 0x0 DUP3 ADD MSTORE POP JUMP JUMPDEST PUSH1 0x0 PUSH2 0xDF4 PUSH1 0x18 DUP4 PUSH2 0x96C JUMP JUMPDEST SWAP2 POP PUSH2 0xDFF DUP3 PUSH2 0xDBE JUMP JUMPDEST PUSH1 0x20 DUP3 ADD SWAP1 POP SWAP2 SWAP1 POP JUMP JUMPDEST PUSH1 0x0 PUSH1 0x20 DUP3 ADD SWAP1 POP DUP2 DUP2 SUB PUSH1 0x0 DUP4 ADD MSTORE PUSH2 0xE23 DUP2 PUSH2 0xDE7 JUMP JUMPDEST SWAP1 POP SWAP2 SWAP1 POP JUMP JUMPDEST PUSH32 0x4C6120636F6E747269627574696F6E20646F6974206574726520737570657269 PUSH1 0x0 DUP3 ADD MSTORE PUSH32 0x6575726520612030000000000000000000000000000000000000000000000000 PUSH1 0x20 DUP3 ADD MSTORE POP JUMP JUMPDEST PUSH1 0x0 PUSH2 0xE86 PUSH1 0x28 DUP4 PUSH2 0x96C JUMP JUMPDEST SWAP2 POP PUSH2 0xE91 DUP3 PUSH2 0xE2A JUMP JUMPDEST PUSH1 0x40 DUP3 ADD SWAP1 POP SWAP2 SWAP1 POP JUMP JUMPDEST PUSH1 0x0 PUSH1 0x20 DUP3 ADD SWAP1 POP DUP2 DUP2 SUB PUSH1 0x0 DUP4 ADD MSTORE PUSH2 0xEB5 DUP2 PUSH2 0xE79 JUMP JUMPDEST SWAP1 POP SWAP2 SWAP1 POP JUMP JUMPDEST PUSH32 0x4E487B7100000000000000000000000000000000000000000000000000000000 PUSH1 0x0 MSTORE PUSH1 0x11 PUSH1 0x4 MSTORE PUSH1 0x24 PUSH1 0x0 REVERT JUMPDEST PUSH1 0x0 PUSH2 0xEF6 DUP3 PUSH2 0x8A4 JUMP JUMPDEST SWAP2 POP PUSH2 0xF01 DUP4 PUSH2 0x8A4 JUMP JUMPDEST SWAP3 POP DUP3 DUP3 ADD SWAP1 POP DUP1 DUP3 GT ISZERO PUSH2 0xF19 JUMPI PUSH2 0xF18 PUSH2 0xEBC JUMP JUMPDEST JUMPDEST SWAP3 SWAP2 POP POP JUMP INVALID LOG2 PUSH5 0x6970667358 0x22 SLT KECCAK256 CALL 0x2E GASPRICE 0xB2 PUSH4 0xF6EBC9FD LOG1 GASLIMIT DUP3 0x26 0xE SWAP2 0x1E 0xCB 0xBF SWAP8 0xCB 0xDA 0xE DUP13 JUMPDEST PUSH17 0x354E9C338FE3764736F6C634300081800 CALLER "},"methodIdentifiers":{"contribute()":"d7bb99ba","contributions(address)":"42e94c90","creator()":"02d05d3f","deadline()":"29dcb0cf","goal()":"40193883","isFunded()":"7c654303","refund()":"590e1ae3","totalFunds()":"968ed600","withdrawFunds()":"24600fc3"}}}}}